:020000040800F2
:1000000000000220FD290008ED280008F328000860
:10001000F9280008FF280008052900080000000052
:100020000000000000000000000000000B29000894
:1000300019290008000000002729000835290008B8
:100040004D2A00084D2A00084D2A00084D2A0008B4
:100050004D2A00084D2A0008412900084F290008B0
:100060005D2900084D2A00086B2900084D2A000868
:100070004D2A00084D2A00084D2A00084D2A000884
:100080004D2A00084D2A00084D2A000800000000F3
:1000900000000000000000000000000079290008B6
:1000A0004D2A00084D2A00084D2A00084D2A000854
:1000B0008D2900084D2A0008A12900084D2A0008B2
:1000C0004D2A00084D2A00084D2A0008B5290008CD
:1000D0004D2A00084D2A00084D2A000800000000A3
:1000E0004D2A00084D2A00084D2A00080000000093
:1000F0000000000000000000000000004D2A000881
:10010000000000004D2A00084D2A00084D2A000872
:1001100000000000000000000000000000000000DF
:100120004D2A00084D2A00084D2A00084D2A0008D3
:100130004D2A000800000000000000000000000040
:100140000000000000000000000000004D2A000830
:100150004D2A00084D2A00084D2A00084D2A0008A3
:100160004D2A00084D2A0008000000000000000091
:10017000000000000000000000000000000000007F
:1001800000000000C9290008000000000000000075
:080190004D2A00084D2A000869
:1001980010B5054C237833B9044B13B10448AFF3B9
:1001A80000800123237010BD7000002000000000B3
:1001B800A455000808B5034B1BB103490348AFF326
:1001C800008008BD0000000074000020A45500084D
:1001D800034613F8012B002AFBD1181A013870477F
:1001E80053B94AB9002908BF00281CBF4FF0FF3196
:1001F8004FF0FF3000F06EB9ADF1080C6DE904CE98
:1002080000F006F8DDF804E0DDE9022304B07047E9
:100218002DE9F047089D04468C46002B40F083806A
:100228008A42174647D9B2FA82F242B1C2F1200097
:1002380024FA00F09140974040EA010C94404FEABC
:100248001748230CBCFBF8F61FFA87FE08FB16C1FB
:1002580043EA014306FB0EF1994209D9FB1806F15E
:10026800FF3080F01981994240F21681023E3B44EA
:100278005B1AA4B2B3FBF8F008FB103344EA03445A
:1002880000FB0EFEA64509D93C1900F1FF3380F0AA
:100298000581A64540F2028102383C4440EA064006
:1002A800A4EB0E0400261DB1D4400023C5E9004389
:1002B8003146BDE8F08702B9FFDEB2FA82F2002AC1
:1002C80050D1CB1B4FEA174E1FFA87F80126B3FB14
:1002D800FEFC210C0EFB1C3341EA034108FB0CF326
:1002E8008B4207D979180CF1FF3002D28B4200F209
:1002F800E9808446C91AA3B2B1FBFEF00EFB1011C7
:1003080043EA014408FB00F8A04507D93C1900F16D
:10031800FF3302D2A04500F2D9801846A4EB0804A6
:1003280040EA0C40BFE78B4209D9002D00F0B180AC
:100338000026C5E9000130463146BDE8F087B3FA2A
:1003480083F6002E4AD18B4202D3824200F2B88053
:10035800841A61EB030101208C46002DA8D0C5E961
:10036800004CA5E7C2F1200320FA03F6974001FAF2
:1003780002F04FEA174ED9403043030CB1FBFEF6AA
:100388001FFA87F80EFB161143EA014306FB08F132
:10039800994204FA02F409D9FB1806F1FF3C80F0EF
:1003A8008D80994240F28A80023E3B445B1A81B2BA
:1003B800B3FBFEF00EFB103341EA034100FB08F3E8
:1003C8008B4207D9791800F1FF3C73D28B4271D95F
:1003D80002383944CB1A40EA064678E7C6F1200CC1
:1003E80003FA06F422FA0CF31C4320FA0CF701FA7C
:1003F80006F34FEA144E21FA0CF11F433B0CB1FBF4
:10040800FEF91FFA84F80EFB191143EA014109FBB2
:1004180008FA8A4502FA06F200FA06F308D96118C2
:1004280009F1FF3048D28A4546D9A9F10209214489
:10043800A1EB0A01BFB2B1FBFEF00EFB101147EAB7
:10044800014700FB08F8B84507D9E71900F1FF3163
:100458002ED2B8452CD90238274440EA0940A7EBE8
:100468000807A0FB02894F45C64649461AD317D04C
:100478005DB1B3EB0E0267EB010707FA0CFCF24023
:100488004CEA0202F740C5E9002700263146BDE8DC
:10049800F0872E4628460BE70646E9E61846FDE6AD
:1004A8004345E5D2B8EB020E69EB04010138DFE7FA
:1004B8000846D2E760468DE78146B9E7664675E7A4
:1004C80030464AE7ACF1020C394413E702383C44A1
:1004D80024E700BF704700BF80B500AF002210219D
:1004E800024802F0B7FE00BF80BD00BF0000024016
:1004F80080B500AF01221021024802F0ABFE00BF18
:1005080080BD00BF0000024080B500AF002204217A
:10051800064802F09FFE052002F008FB0122042194
:10052800024802F097FE00BF80BD00BF00000240F5
:1005380080B582B000AF0346FB7100BF0A4803F0E4
:1005480069FE0346012BF9D100220821074802F071
:1005580081FEF91D4FF0FF330122034803F049FBE8
:1005680000BF0837BD4680BDA4020020000002403D
:1005780080B584B000AF7860396000BF144803F0DC
:1005880049FE0346012BF9D101220821114802F046
:1005980061FE15E03B68B3F5004F28BF4FF40043F8
:1005A800FB81FA894FF0FF337968094803F021FB92
:1005B800FB897A6813447B60FB893A68D31A3B60ED
:1005C8003B68002BE6D100BF00BF1037BD4680BD99
:1005D800A40200200000024090B585B000AF044698
:1005E800084611461A462346FB800346BB800B4645
:1005F8007B8013463B802A20FFF79AFFFB881B0A63
:100608009BB2DBB23B73FB88DBB27B737B881B0A34
:100618009BB2DBB2BB737B88DBB2FB7307F10C03C5
:1006280004211846FFF7A4FF2B20FFF781FFBB88A2
:100638001B0A9BB2DBB23B72BB88DBB27B723B8886
:100648001B0A9BB2DBB2BB723B88DBB2FB7207F1C1
:10065800080304211846FFF78BFF2C20FFF768FFDB
:1006680000BF1437BD4690BD90B59BB000AFFFF7F3
:1006780033FFFFF749FF0120FFF75AFF4FF47A7065
:1006880002F054FACB20FFF753FF874A07F16003C3
:1006980092E8030018600433197007F1600305211C
:1006A8001846FFF765FFCF20FFF742FF7F4A07F1A3
:1006B8005C031268114619800233120C1A7007F194
:1006C8005C0303211846FFF753FFE820FFF730FFCC
:1006D800774A07F158031268114619800233120C41
:1006E8001A7007F1580303211846FFF741FFEA2063
:1006F800FFF71EFF0023A7F8543007F15403022127
:100708001846FFF735FFED20FFF712FF694B3B65F1
:1007180007F1500304211846FFF72AFFF720FFF7D7
:1007280007FF202387F84C3007F14C0301211846B6
:10073800FFF71EFFC020FFF7FBFE232387F8483092
:1007480007F1480301211846FFF712FFC120FFF700
:10075800EFFE102387F8443007F1440301211846BF
:10076800FFF706FFC520FFF7E3FE42F63E03A7F8B2
:10077800403007F1400302211846FFF7F9FEC72071
:10078800FFF7D6FE862387F83C3007F13C030121AA
:100798001846FFF7EDFE3620FFF7CAFE482387F814
:1007A800383007F1380301211846FFF7E1FE3A20F7
:1007B800FFF7BEFE552387F8343007F134030121D3
:1007C8001846FFF7D5FEB120FFF7B2FE4FF4C0532D
:1007D8003B8607F1300302211846FFF7C9FEB62011
:1007E800FFF7A6FE344A07F12C0312681146198058
:1007F8000233120C1A7007F12C0303211846FFF775
:10080800B7FEF220FFF794FE002387F8283007F19F
:10081800280301211846FFF7ABFE2620FFF788FEC4
:10082800012387F8243007F1240301211846FFF734
:100838009FFEE020FFF77CFE204B07F114040FCB4E
:1008480007C4238002341B0C237007F114030F2103
:100858001846FFF78DFEE120FFF76AFE184B3C1D96
:100868000FCB07C4238002341B0C23703B1D0F21C0
:100878001846FFF77DFE1120FFF75AFE782002F098
:1008880055F92920FFF754FE3620FFF751FE28239B
:100898003B703B4601211846FFF76AFEFFF728FE2A
:1008A80000BF6C37BD4690BDBC550008C455000854
:1008B800C855000864031281CC550008D0550008BB
:1008C800E055000882B090B589B000AF7B6303465D
:1008D800FB800B46BB801346FB7097F834309AB206
:1008E800FB8813449BB2013B9CB297F835309AB20F
:1008F800BB8813449BB2013B9BB2B988F888224657
:10090800FFF76AFE0023FB6143E0BA6BFB78203BEC
:1009180097F8351001FB03F31946FB690B445B009C
:1009280013441B887B610023BB6129E07A69BB699A
:1009380002FA03F303F40043002B0ED0BB8F1B0A0B
:100948009BB2DBB23B74BB8FDBB27B7407F1100345
:1009580002211846FFF70CFE0FE0B7F840301B0ADB
:100968009BB2DBB23B73B7F84030DBB27B7307F165
:100978000C0302211846FFF7FBFDBB690133BB617D
:1009880097F834301A46BB699342CFD3FB690133D9
:10099800FB6197F835301A46FB699342B5D300BF1F
:1009A80000BF2437BD46BDE8904002B0704782B012
:1009B80080B586B004AF3A607B610346FB800B4686
:1009C800BB80FFF789FD2EE0FB883A7D1344B3F521
:1009D800A07F13DB0023FB807B7D9AB2BB88134486
:1009E800BB80BB887A7D1344EF2B21DC3B681B78E6
:1009F800202B03D13B6801333B6014E03B681A7835
:100A0800B988F8883B8C0293BB8B0193BB69009330
:100A18007B69FFF757FF3B7D9AB2FB881344FB8045
:100A28003B6801333B603B681B78002BCCD100E06E
:100A380000BFFFF75DFD00BF0837BD46BDE8804039
:100A480002B0704790B587B000AF0446084611461B
:100A58001A462346FB800346BB800B467B80134621
:100A68003B80FB88B3F5A07F80F08380BB88EF2BA9
:100A78007FD8FA887B881344B3F5A07F03DDFB8811
:100A8800C3F5A0737B80BA883B881344F02B03DD41
:100A9800BB88C3F1F0033B80FFF71EFDFA887B8813
:100AA80013449BB2013B9CB2BA883B8813449BB267
:100AB800013B9BB2B988F8882246FFF78DFD0122D9
:100AC80008212E4802F0C6FB7B883A8802FB03F314
:100AD800FB60FB68642B2FD83B8D1B0A9BB2FB7213
:100AE8003B8DBB720023FB820BE0FB8A2449FA7A18
:100AF800CA54FB8A01332249BA7ACA54FB8A0233A0
:100B0800FB82FA8AFB685B009A42EED3FB689BB2D1
:100B18005B009BB21A461A491A4803F0A7F902E08B
:100B2800012002F003F8174803F074FB0346012B79
:100B3800F6D1FFF7DDFC1DE03B8D1B0A9BB2DBB253
:100B48003B723B8DDBB27B7200233B610AE007F10D
:100B580008014FF0FF3302220A4803F04AF83B69C4
:100B680001333B613A69FB689A42F0D3FFF7C0FC56
:100B780000E000BF1C37BD4690BD00BF000002402A
:100B88008C000020A402002080B584B002AF034688
:100B9800FB80FB880093F0234FF4A0720021002013
:100BA800FFF750FF00BF0837BD4680BD80B582B053
:100BB80000AF0346FB71A84B1B78032B00F2C381DF
:100BC80001A252F823F000BFE10B0008890C0008CD
:100BD8007B0D00084D0E0008FB79012B11D19F4BAE
:100BE80093F90030002B0CDD9C4B93F90030DBB2FD
:100BF800013BDBB25AB2994B1A70994B01221A7019
:100C08003DE0FB79022B11D1944B93F90030002B76
:100C18000CDC924B93F90030DBB20133DBB25AB2F1
:100C28008E4B1A708E4B01221A7028E0FB79052B27
:100C380040F08B81894B93F90030002B0CD1864B07
:100C480001221A70874B00221A70874B01221A70F2
:100C5800854B01221A700EE07F4B03221A70834BDA
:100C680000221A70824B00221A70824B01221A70DD
:100C78007D4B01221A707A4B01221A7065E164E1FA
:100C8800FB79012B25D1774B93F90030002B40F3EA
:100C98005E81744B93F90030DBB2013BDBB25AB290
:100CA800704B1A706F4B93F90020734B93F9003017
:100CB8009A4204DA6B4B93F900206F4B1A706F4B12
:100CC80000221A80684B01221A70654B01221A70A3
:100CD8003DE1FB79022B2CD1624B93F90030DBB25A
:100CE800032B00F234815F4B93F90030DBB2013300
:100CF800DBB25AB25B4B1A705A4B93F900301A4662
:100D08005D4B93F90030D31A022B08DD554B93F94C
:100D18000030DBB2023BDBB25AB2574B1A70574B6A
:100D280000221A80504B01221A704D4B01221A7072
:100D38000DE1FB79052B11D1474B02221A70504B5C
:100D480001221A704F4B01221A7001F0E3FE03468C
:100D58004D4A1360424B01221A70F8E0FB79062BCA
:100D680040F0F5803C4B00221A703D4B01221A706E
:100D7800EDE0FB79062B0BD1374B01221A703A4B69
:100D880001221A7001F00CFC354B01221A70E0E0C8
:100D9800FB79052B0ED13D4B1B78DBB2002B0CBF2A
:100DA80001230023DBB21A46384B1A702C4B012260
:100DB8001A70CEE0FB79042B1FD12A4B93F900302F
:100DC800002B09DD274B93F90030DBB2013BDBB286
:100DD8005AB2244B1A7002E0224B04221A70294B93
:100DE80001221A7001F096FE0346274A136001F0AB
:100DF800D7FB1B4B01221A70ABE0FB79032B40F0A9
:100E0800A880184B93F90030DBB2032B09D8154B97
:100E180093F90030DBB20133DBB25AB2114B1A70CE
:100E280002E0104B00221A70164B01221A7001F0D2
:100E380071FE0346144A136001F0B2FB084B01220D
:100E48001A7086E0FB79062B22D1034B00221A7018
:100E5800034B01221A707EE0590100205A0100203C
:100E6800330000205B0100203100002054010020E5
:100E780055010020300000205801002066010020A4
:100E8800320000206C01002068010020340000209E
:100E9800FB79022B2BD1324B93F90030DBB2042BB8
:100EA80059D82F4B93F90030DBB20133DBB25AB279
:100EB8002B4B1A702A4B93F900301A46294B93F999
:100EC8000030D31A022B08DD264B93F90030DBB231
:100ED8000133DBB25AB2234B1A70234B00221A801B
:100EE800224B01221A70224B01221A7033E0FB793F
:100EF800012B30D11A4B93F90030002B2BDD184B06
:100F080093F90030DBB2013BDBB25AB2144B1A70D2
:100F1800134B93F90020134B93F900309A4208DAE7
:100F2800104B93F90030DBB2013BDBB25AB20D4BE8
:100F38001A700D4B00221A800C4B01221A700C4BB0
:100F480001221A7007E000BF06E000BF04E000BFFE
:100F580002E000BF00E000BF00BF0837BD4680BD0B
:100F680054010020550100205601002030000020C7
:100F78003300002080B584B002AF01F065FD00F0B9
:100F8800F3F800F055FB00F057F900F02BFA00F0E9
:100F980089F900F09DFA00F0E9FA1C2001F013FF2E
:100FA80000220421634802F055F9642001F0BEFDD7
:100FB800012204215F4802F04DF9642001F0B6FDDA
:100FC800FFF752FB322001F0B1FD0020FFF7DCFDF6
:100FD80001F05CFA0023FB7172B600BF564B1B7818
:100FE800FB71554B00221A7062B600BFFB79002BCB
:100FF8001BD0FB79032B0ED0FB79042B0BD0FB798C
:10100800062B08D0FB79052B05D0FB79012B02D0E4
:10101800FB79022B05D1494B00221A80484B00224C
:101028001A80FB791846FFF7C1FD464B1B78DBB2E7
:10103800012B18D101F06EFD0246434B1B68D31AF1
:10104800B3F5FA6F0FD3414B93F90030DBB2184672
:1010580001F038FA3B4B00221A703D4B01221A70FE
:101068003C4B01221A703C4B1B78022B04D1384BA5
:101078001B78DBB2002B07D1374B1B78012B03D031
:10108800354B1B78032B0FD101F044FD3860334BEF
:101098001B683A68D31AB3F5AF7F05D92F4A3B6866
:1010A80013602C4B01221A702A4B1B78DBB2012BE0
:1010B8003ED1284B00221A70294B1A78264B1B78F0
:1010C8009A420CD000230093B9234FF4A072242134
:1010D8000020FFF7B7FC204B1A78214B1A701E4BE3
:1010E8001B78032B3FF676AF01A252F823F000BF1E
:1010F800091100080F110008151100083311000824
:1011080000F0F6FB15E000F083FC12E00F4B93F9BA
:1011180000301946134A0B46DB005B1A9B00134448
:101128001B68184600F002FE03E000F029FF00E00B
:1011380000BF4FE7000002405C010020640100206E
:10114800660100206C010020680100205B0100207E
:1011580034000020330000205901002060010020E5
:10116800350000209C6F020880B594B000AF07F1ED
:10117800200330220021184604F0F4F907F10C038B
:1011880000221A605A609A60DA601A610023BB6014
:10119800274B1B6C264A43F080531364244B1B6C6B
:1011A80003F08053BB60BB6800237B60214B1B6846
:1011B800204A43F4404313601E4B1B6803F440432A
:1011C8007B607B6802233B620123FB6210233B6345
:1011D8000223BB630023FB6308233B6464237B6413
:1011E8000223BB640423FB6407F12003184602F0C2
:1011F80063F80346002B01D001F05EF80F23FB6073
:1012080002233B6100237B614FF48053BB610023C1
:10121800FB6107F10C030321184602F0C5FA0346E7
:10122800002B01D001F048F800BF5037BD4680BD03
:10123800003802400070004080B500AF174B184AD4
:101248001A60164B4FF482725A60144B00229A604F
:10125800124B0022DA60114B00221A610F4B002258
:101268005A610E4B4FF400729A610C4B0822DA61F6
:101278000A4B00221A62094B00225A62074B0022CD
:101288009A62064B0A22DA62044802F029FC0346F5
:10129800002B01D001F010F800BF80BDA40200208F
:1012A8000030014080B596B000AF07F14803002236
:1012B8001A605A609A60DA6007F1400300221A60E7
:1012C8005A6007F1240300221A605A609A60DA60B3
:1012D8001A615A619A613B1D20220021184604F0C8
:1012E80041F93E4B3E4A1A603C4B63225A603B4BE5
:1012F80000229A60394B40F26F42DA60374B002285
:101308001A61364B00225A61344B00229A613348E5
:1013180003F0EEF80346002B01D000F0CDFF4FF4A8
:101328008053BB6407F1480319462C4803F066FC58
:101338000346002B01D000F0BFFF284803F08AF9CC
:101348000346002B01D000F0B7FF00233B640023C5
:101358007B6407F140031946204804F00BF8034664
:10136800002B01D000F0A8FF60237B620023BB6242
:101378000023FB6200233B6300237B630023BB63E2
:101388000023FB6307F1240300221946134803F0E6
:1013980073FB0346002B01D000F08EFF00237B6017
:1013A8000023BB600023FB6000233B6100237B61BB
:1013B8004FF40053BB6100233B623B1D19460748AD
:1013C80004F046F80346002B01D000F075FF0348EF
:1013D80001F002FA00BF5837BD4680BD1402002054
:1013E8000000014080B58EB000AF07F1280300224D
:1013F8001A605A609A60DA6007F1200300221A60C6
:101408005A603B1D00221A605A609A60DA601A61BD
:101418005A619A612D4B4FF080421A602B4B632220
:101428005A602A4B00229A60284B40F26F42DA60D9
:10143800264B00221A61254B00229A61234803F0AB
:1014480057F80346002B01D000F036FF4FF48053C5
:10145800BB6207F1280319461C4803F0CFFB03467B
:10146800002B01D000F028FF184803F0F3F80346DA
:10147800002B01D000F020FF00233B6200237B6299
:1014880007F120031946114803F074FF0346002BA7
:1014980001D000F011FF60237B600023BB600023B4
:1014A800FB6000237B613B1D00221946074803F0BF
:1014B800E3FA0346002B01D000F0FEFE034801F0DA
:1014C8008BF900BF3837BD4680BD00BFFC02002045
:1014D80080B586B000AF07F1080300221A605A6091
:1014E8009A60DA603B4600221A605A601D4B1E4A19
:1014F8001A601C4B40F2E7325A601A4B00229A607D
:10150800184B6322DA60174B00221A61154B002230
:101518009A61144802F0ECFF0346002B01D000F05A
:10152800CBFE4FF48053BB6007F1080319460D4802
:1015380003F064FB0346002B01D000F0BDFE00233E
:101548003B6000237B603B461946064803F012FFC8
:101558000346002B01D000F0AFFE00BF1837BD4690
:1015680080BD00BF900100200008004080B58CB00D
:1015780000AF07F1200300221A605A609A60DA600F
:101588003B1D00221A605A609A60DA601A615A613B
:101598009A61254B254A1A60234B63225A60224BD5
:1015A80000229A60204B40F26F42DA601E4B002204
:1015B8001A611D4B00229A611B4802F099FF0346ED
:1015C800002B01D000F078FE4FF480533B6207F106
:1015D80020031946144803F011FB0346002B01D0E1
:1015E80000F06AFE104803F035F80346002B01D0DE
:1015F80000F062FE60237B600023BB600023FB6079
:1016080000237B613B1D00221946074803F034FA8A
:101618000346002B01D000F04FFE034801F0DCF830
:1016280000BF3037BD4680BD5C020020004001404D
:1016380080B58AB000AF07F1140300221A605A601F
:101648009A60DA601A6100233B61514B1B6B504A68
:1016580043F0100313634E4B1B6B03F010033B6105
:101668003B690023FB604A4B1B6B494A43F0040368
:101678001363474B1B6B03F00403FB60FB680023F9
:10168800BB60434B1B6B424A43F080031363404BE0
:101698001B6B03F08003BB60BB6800237B603C4B83
:1016A8001B6B3B4A43F001031363394B1B6B03F07D
:1016B80001037B607B6800233B60354B1B6B344A1E
:1016C80043F002031363324B1B6B03F002033B60CE
:1016D8003B6800221C212F4801F0BCFD0022072195
:1016E8002D4801F0B7FD77237B614FF40413BB61EC
:1016F8000123FB6107F114031946284801F026FC71
:101708001C237B610123BB610023FB6103233B6234
:1017180007F1140319461F4801F018FC07237B61E1
:101728000123BB610023FB6103233B6207F1140320
:101738001946194801F00AFC00220021062001F090
:1017480018FB062001F031FB00220021072001F0E0
:1017580010FB072001F029FB00220021082001F0DE
:1017680008FB082001F021FB002200210A2001F0DB
:1017780000FB0A2001F019FB00220021172001F0CC
:10178800F8FA172001F011FB00BF2837BD4680BDCD
:1017980000380240000002400004024000080240F5
:1017A80080B584B000AF0346FB8001F0B3F9F86060
:1017B800FB88012B0CD1304B1B68FA68D31AC82B55
:1017C80055D92E4B01221A702B4AFB6813604EE044
:1017D800FB88022B0CD12A4B1B68FA68D31AC82B3A
:1017E80045D9264B02221A70254AFB6813603EE051
:1017F800FB88042B0CD1234B1B68FA68D31AC82B1F
:1018080035D91E4B03221A701E4AFB6813602EE05E
:10181800FB88402B0CD11C4B1B68FA68D31AC82BC9
:1018280025D9164B04221A70174AFB6813601EE06C
:10183800FB88102B0CD1154B1B68FA68D31AC82BE0
:1018480015D90E4B05221A70104AFB6813600EE07A
:10185800FB88202B0BD10E4B1B68FA68D31AC82BB8
:1018680005D9064B06221A70094AFB68136000BFA7
:101878001037BD4680BD00BF700100205C0100200C
:1018880074010020780100207C01002080010020E4
:101898008401002080B582B000AF78607B681B6847
:1018A8000E4A934215D10E4B1B78022B07D10D4BD4
:1018B8001B78DBB2012B02D100F0C4FD09E00A4B12
:1018C80000225A634FF0804300225A63074B0022DC
:1018D8005A6300BF0837BD4680BD00BF00080040FE
:1018E8005901002034000020000001400040014060
:1018F80080B586B004AF00230093AE234FF4A072E6
:1019080024210020FFF79EF81F23009323234FF480
:10191800A07200210020FFF795F8374B1F22029292
:101928004FF6FF7201925A6800921B68334A0821E9
:101938000A20FFF73CF800237B6048E07B689BB2F5
:101948001A46920013441A4691001A460B4613444D
:101958005B009BB250337B80294B93F900301A46C9
:101968007B6893421ED17B88083B99B24FF6E0739F
:10197800009324234FF48C721420FFF763F8214A54
:101988007B6852F823001C4B79884FF6E07202926C
:10199800002201925A6800921B6802462320FFF732
:1019A80006F811E0174A7B6852F82300124B798831
:1019B800002202924FF6FF7201925A6800921B6849
:1019C80002462320FEF7F3FF7B6801337B607B68C8
:1019D800012BB3DD0C4B002202924FF4FC62019202
:1019E8005A6800921B68094AD3210F20FEF7DFFFCF
:1019F80000BF0837BD4680BD0800002034570008E6
:101A08005A01002010000020000000204457000860
:101A180080B59CB004AFBB4B1B78DBB2012B1FD148
:101A28001F23009323234FF4A07200210020FFF707
:101A380009F8B54B1F2202924FF6FF7201925A68BD
:101A480000921B68B14A08210A20FEF7B0FF002364
:101A58000093AA234FF4A07224210020FEF7F2FF7E
:101A6800A84B1B78DBB2012B08D100230093AF23CE
:101A78004FF496722D210A20FEF7E4FF0023FB6540
:101A88001FE1A34B93F900301A46FB6D13447B65A5
:101A9800FB6D9BB21A46520013441A461201D31A20
:101AA8009BB23C33A7F852307B6D042B00F20E81B9
:101AB80098497A6D1346DB009B1A9B000B441B6800
:101AC8001846FEF785FB0346A7F850301823A7F8F9
:101AD8004E30914B93F900301A467B6D934240F09B
:101AE80092808E4BB3F90030002B0CD1B7F85230EE
:101AF800053B99B24FF6E07300931E234FF496729C
:101B08000A20FEF79FFFB7F85020B7F84E309A42E8
:101B180017D880497A6D1346DB009B1A9B000B444B
:101B28001868794BB7F852104FF6E072029200220B
:101B380001925A6800921B6802460F20FEF737FF91
:101B4800BCE00023BB652CE0744BB3F900301A46A7
:101B5800BB6D1344B7F85020063293FBF2F102FB39
:101B680001F29B1ABB64B7F85030BA6C9A4210DA8B
:101B780068497A6D1346DB009B1A9B000B441A6870
:101B8800BB6C134419783A46BB6D13440A461A7065
:101B980004E03A46BB6D134420221A70BB6D013332
:101BA800BB65B7F84E30BA6D9A42CDDBB7F84E3008
:101BB80007F160021344002203F8602C524B3846A8
:101BC800B7F852104FF6E0720292002201925A685A
:101BD80000921B6802460F20FEF7E9FE4F4BB3F94F
:101BE80000309BB201339BB21AB24C4B1A80B7F843
:101BF80050300533494AB2F9002093425EDA474B28
:101C080000221A805AE03F4B1B78DBB2012B55D1DA
:101C1800B7F85020B7F84E309A4217D83D497A6D38
:101C28001346DB009B1A9B000B441868364BB7F829
:101C38005210002202924FF6FF7201925A680092E7
:101C48001B6802460F20FEF7B2FE37E031497A6D75
:101C58001346DB009B1A9B000B441968B7F84E30FB
:101C6800033B1A4607F12803184603F083FCB7F82C
:101C78004E30033B07F160021344002203F8382C6E
:101C880007F128031846FEF7A3FA03461A4607F198
:101C980028031344224A106818601B4B07F12800D8
:101CA800B7F85210002202924FF6FF7201925A685A
:101CB80000921B6802460F20FEF779FEFB6D013388
:101CC800FB65FB6D022B7FF7DCAE00E000BF0D4B20
:101CD8001B78DBB2012B02D10A4B00221A70114B80
:101CE800002202924FF4FC6201925A6800921B682B
:101CF8000D4AD3210F20FEF75AFE00BF6037BD46BC
:101D080080BD00BF31000020080000206457000893
:101D1800580100209C6F02085B010020660100202A
:101D280070570008000000207457000880B594B070
:101D380004AF7860844B1B78DBB2012B1BD14FF4C6
:101D48007873009323234FF4A07200210020FEF73C
:101D580079FE7E4B4FF4787202924FF6FF72019231
:101D68005A6800921B687A4A08210A20FEF71FFE6B
:101D7800754B00221A70754B002202924FF6E072E2
:101D880001925A6800921B68724A4B211420FEF790
:101D98000EFE714B93F900301A46704B1B689A423D
:101DA80011D00023009319234FF49672692114204F
:101DB800FEF748FE6A4B00221A80674B93F9003001
:101DC8001A46664B1A607868FEF702FA03467B8764
:101DD80019233B877A8F3B8F9A420ED85B4B0022A0
:101DE80002924FF6FF7201925A6800921B687A6855
:101DF80069211420FEF7DBFD56E00023FB6325E094
:101E0800574BB3F900301A46FB6B13447A8F0632EE
:101E180093FBF2F102FB01F29B1A7B637B8F7A6BD7
:101E28009A420ADA7B6B7A681344197807F10C0234
:101E3800FB6B13440A461A7005E007F10C02FB6BB2
:101E4800134420221A70FB6B0133FB633B8FFA6B40
:101E58009A42D5DB3B8F07F140021344002203F876
:101E6800342C3A4B07F10C01002202924FF6FF7214
:101E780001925A6800921B680A4669211420FEF7ED
:101E880096FD374BB3F900309BB201339BB21AB2BF
:101E9800334B1A807B8F0533314AB2F900209342C5
:101EA80002DA2F4B00221A80284B0022029240F2BD
:101EB800FF7201925A6800921B682A4AA02150209A
:101EC800FEF775FD284B1B78DBB2002B0ED01F4B9D
:101ED800002202924FF4FC6201925A6800921B6839
:101EE800224AA0219620FEF762FD0DE0174B002242
:101EF80002924FF4784201925A6800921B681C4A79
:101F0800A0219620FEF753FD104B0022029240F2CA
:101F1800FF7201925A6800921B68164AA021DC20C1
:101F2800FEF745FD144B002202924FF4FC62019229
:101F38005A6800921B68114AD3210F20FEF737FD1B
:101F480000BF4037BD4680BD320000200800002099
:101F58008C570008985700085B01002038000020C3
:101F680064010020A857000834000020AC5700087E
:101F7800B0570008B457000800000020B857000800
:101F880080B59CB004AFB14B1B78DBB2012B3DD1BF
:101F98004FF4F043009323234FF4A0720021002054
:101FA800FEF750FDAA4B4FF4F04202924FF6FF7233
:101FB80001925A6800921B68A64A08210A20FEF777
:101FC800F6FCA34B002202924FF6E07201925A6887
:101FD80000921B68A04A30211420FEF7E8FC9C4BB5
:101FE800002202924FF6FF7201925A6800921B6813
:101FF8009A4A49211420FEF7DAFC00230093732340
:102008004FF4967264210A20FEF71CFD8F4B1B7853
:10201800DBB2012B08D10023009373234FF496728F
:1020280064210A20FEF70EFD0023FB6509E18C4BB5
:1020380093F900301A46FB6D13447B65FB6D9BB228
:102048001A4692001344DB009BB26933A7F852305A
:102058007B6D052B00F20E81824A7B6D52F823308E
:102068001846FEF7B5F80346A7F850301823A7F826
:102078004E307D4B93F900301A467B6D934240F009
:102088008A807A4BB3F90030002B0CD1B7F8523064
:10209800053B99B24FF6E07300931C234FF49672F8
:1020A8000A20FEF7CFFCB7F85020B7F84E309A4216
:1020B80013D86C4A7B6D52F82300654BB7F8521061
:1020C8004FF6E0720292002201925A6800921B6851
:1020D80002460F20FEF76BFCB0E00023BB6528E04A
:1020E800624BB3F900301A46BB6D1344B7F8502061
:1020F800063293FBF2F102FB01F29B1ABB64B7F8BC
:102108005030BA6C9A420CDA564A7B6D52F823204A
:10211800BB6C134419783A46BB6D13440A461A70CF
:1021280004E03A46BB6D134420221A70BB6D01339C
:10213800BB65B7F84E30BA6D9A42D1DBB7F84E306E
:1021480007F160021344002203F8602C404B384624
:10215800B7F852104FF6E0720292002201925A68C4
:1021680000921B6802460F20FEF721FC3F4BB3F993
:1021780000309BB201339BB21AB23C4B1A80B7F8BD
:1021880050300533394AB2F90020934256DA374BBA
:1021980000221A8052E02D4B1B78DBB2012B4DD167
:1021A800B7F85020B7F84E309A4213D82D4A7B6DB5
:1021B80052F82300264BB7F85210002202924FF62D
:1021C800FF7201925A6800921B6802460F20FEF7C0
:1021D800EEFB33E0234A7B6D52F82310B7F84E30FC
:1021E800033B1A4607F12803184603F0C3F9B7F86A
:1021F8004E30033B07F160021344002203F8382CE9
:1022080007F128031846FDF7E3FF03461A4607F1CE
:1022180028031344164A106818600D4B07F128006C
:10222800B7F85210002202924FF6FF7201925A68D4
:1022380000921B6802460F20FEF7B9FBFB6D0133C5
:10224800FB65FB6D022B7FF7F2AE14E03000002037
:1022580008000020E8570008F8570008145800083C
:1022680055010020180000205401002056010020CC
:102278007057000800BF0D4B1B78DBB2012B02D151
:102288000A4B00221A700A4B002202924FF4FC6299
:1022980001925A6800921B68064AD3210F20FEF764
:1022A80086FB00BF6037BD4680BD00BF3000002000
:1022B800000000207457000880B400AF72B600BF59
:1022C800FEE7000080B485B000AF78600B46FB7075
:1022D8001346BB70FB78114A52F82330FB60FB6849
:1022E800002B06D17B6800225A637B6801225A6161
:1022F8000FE07B68FA68DA62BB78FA6802FB03F3DE
:10230800074AA2FB03239A097B685A637B68012268
:102318005A611437BD465DF8047B7047287002087F
:102328001F85EB5180B582B000AF0346FB71054BAA
:102338001A78FB7919460448FFF7C4FF00BF08372D
:10234800BD4680BD3C0000200000014080B582B041
:1023580000AF0346FB71064B1A78FB7919464FF01C
:102368008040FFF7AFFF00BF0837BD4680BD00BF04
:102378003D00002080B582B000AF0346FB71054BDD
:102388001A78FB7919460448FFF79CFF00BF083705
:10239800BD4680BD3E0000200040014080B582B0AF
:1023A80000AF786039607B681B68002B46D07B687B
:1023B8009B88002B42D07B689B7ADBB2002B28D00D
:1023C8007B6800229A727B681A687B68DB889BB2FC
:1023D8009B0013441A783B68104698477B681A6834
:1023E8007B68DB889BB29B0013445A887B681A8100
:1023F8007B68DB889BB201339AB27B68DA807B68A2
:10240800DB889AB27B689B889A4202D37B68002259
:10241800DA807B681B899BB2002B06D07B681B89FE
:102428009BB2013B9AB27B681A817B681B899BB27D
:10243800002B04D17B6801229A7200E000BF0837A4
:10244800BD4680BD80B500AF094B1B680133084A03
:10245800136008490848FFF7A1FF08490848FFF733
:102468009DFF08490848FFF799FF00BF80BD00BFDE
:102478008C0100202D23000840000020552300086F
:102488004C0000207D2300085800002080B500AFD4
:102498000021084802F038F90021074802F034F911
:1024A8000021064802F030F9054802F071F800BF33
:1024B80080BD00BF14020020FC0200205C02002046
:1024C8009001002080B485B000AF0346FB71FB7912
:1024D800042B50D8FA791346DB009B1A9B00294A33
:1024E8001344FB60284B00225A634FF080430022BC
:1024F8005A63264B00225A63244A012353614FF042
:1025080080425361204A5361FB685B68204A13602C
:10251800FB681A891E4B9A801D4B0022DA801C4BDF
:1025280000221A811A4B01229A72FB68DB68194A49
:102538001360FB681A8A174B9A80164B0022DA80C0
:10254800144B00221A81134B01229A72FB685B69B3
:10255800114A1360FB681A8B0F4B9A800E4B0022AE
:10256800DA800D4B00221A810B4B01229A720B4A1A
:10257800FB79137000E000BF1437BD465DF8047B9B
:10258800704700BFF073040800000140004001409C
:10259800400000204C000020580000208801002046
:1025A80080B400AF104B00225A634FF080430022E2
:1025B8005A630E4B00225A630C4A012353614FF0B1
:1025C80080425361084A5361094B00221A60084B44
:1025D8001B68084A1360074B1B68074A136000BF53
:1025E800BD465DF8047B7047000001400040014093
:1025F800580000204C0000204000002080B582B028
:1026080000AF00237B60134B5B6C124A43F480439A
:102618005364104B5B6C03F480437B607B6800233E
:102628003B600C4B1B6C0B4A43F080531364094B03
:102638001B6C03F080533B603B6800220021512053
:1026480000F097FB512000F0B0FB00BF0837BD46F3
:1026580080BD00BF0038024080B58AB000AF786006
:1026680007F1140300221A605A609A60DA601A614E
:102678007B681B681D4A934233D100233B611C4B86
:102688005B6C1B4A43F480535364194B5B6C03F433
:1026980080533B613B690023FB60154B1B6B144A5D
:1026A80043F001031363124B1B6B03F00103FB6040
:1026B800FB68E0237B610223BB610023FB610323EA
:1026C8003B6205237B6207F114031946094800F0B1
:1026D8003DFC00220021232000F04BFB232000F0CA
:1026E80064FB00BF2837BD4680BD00BF00300140F5
:1026F800003802400000024080B586B000AF786024
:102708007B681B68304A93420ED100237B612F4BB4
:102718005B6C2E4A43F0010353642C4B5B6C03F053
:1027280001037B617B694AE07B681B68B3F1804FDA
:1027380016D100233B61254B1B6C244A43F001034F
:102748001364224B1B6C03F001033B613B690022BD
:1027580000211C2000F00DFB1C2000F026FB2EE0C1
:102768007B681B681A4A934216D10023FB60174BFB
:102778001B6C164A43F004031364144B1B6C03F0E0
:102788000403FB60FB68002200211E2000F0F1FA20
:102798001E2000F00AFB12E07B681B680D4A93427A
:1027A8000DD10023BB60094B5B6C084A43F48033AE
:1027B8005364064B5B6C03F48033BB60BB6800BF9B
:1027C8001837BD4680BD00BF0000014000380240F8
:1027D800000800400040014080B58AB000AF786032
:1027E80007F1140300221A605A609A60DA601A61CD
:1027F8007B681B68364A93421FD100233B61354BE7
:102808001B6B344A43F001031363324B1B6B03F019
:1028180001033B613B694FF480737B610223BB6119
:102828000023FB6100233B6201237B6207F1140351
:102838001946294800F08AFB46E07B681B68B3F11B
:10284800804F1ED10023FB60224B1B6B214A43F0B3
:10285800010313631F4B1B6B03F00103FB60FB6851
:1028680001237B610223BB610023FB6100233B62E0
:1028780001237B6207F114031946174800F066FB31
:1028880022E07B681B68154A93421DD10023BB6078
:10289800104B1B6B0F4A43F0100313630D4B1B6B5C
:1028A80003F01003BB60BB6820237B610223BB617C
:1028B8000023FB6100233B6203237B6207F11403BF
:1028C8001946074800F042FB00BF2837BD4680BDC7
:1028D8000000014000380240000002400040014072
:1028E8000010024080B400AFFEE780B400AFFEE7FE
:1028F80080B400AFFEE780B400AFFEE780B400AF5D
:10290800FEE780B400AF00BFBD465DF8047B7047AA
:1029180080B400AF00BFBD465DF8047B704780B44B
:1029280000AF00BFBD465DF8047B704780B500AFBF
:1029380000F0DCF800BF80BD80B500AF012000F0DA
:10294800A3FC00BF80BD80B500AF022000F09CFC56
:1029580000BF80BD80B500AF042000F095FC00BF2B
:1029680080BD80B500AF102000F08EFC00BF80BD98
:1029780080B500AF202000F087FC402000F084FCE8
:1029880000BF80BD80B500AF024801F06DFF00BFF9
:1029980080BD00BFFC02002080B500AF024801F0F6
:1029A80063FF00BF80BD00BF9001002080B500AF6D
:1029B800024801F011FB00BF80BD00BFA402002047
:1029C80080B400AF00BFBD465DF8047B70470000CF
:1029D80080B400AF064BD3F88830054A43F470033F
:1029E800C2F8883000BFBD465DF8047B704700BF61
:1029F80000ED00E0DFF834D00D480E490E4A002300
:102A080002E0D458C4500433C4188C42F9D30B4A9A
:102A18000B4C002301E013600432A242FBD3FFF702
:102A2800D7FF02F07BFDFEF7A5FA704700000220F1
:102A380000000020700000209C7404087000002032
:102A480048030020FEE7000080B500AF0E4B1B686E
:102A58000D4A43F4007313600B4B1B680A4A43F496
:102A680080631360084B1B68074A43F48073136044
:102A7800032000F073F9002000F008F8FFF7BEFD0E
:102A88000023184680BD00BF003C024080B582B0DC
:102A980000AF7860124B1A68124B1B7819464FF436
:102AA8007A73B3FBF1F3B2FBF3F3184600F099F92C
:102AB8000346002B01D001230EE07B680F2B0AD8B8
:102AC800002279684FF0FF3000F053F9064A7B681E
:102AD8001360002300E0012318460837BD4680BD77
:102AE800640000206C0000206800002080B400AF63
:102AF800064B1B781A46064B1B681344044A13609E
:102B080000BFBD465DF8047B704700BF6C00002025
:102B18004403002080B400AF034B1B681846BD4631
:102B28005DF8047B704700BF4403002080B584B083
:102B380000AF7860FFF7EEFFB8607B68FB60FB686A
:102B4800B3F1FF3F05D00A4B1B781A46FB681344C4
:102B5800FB6000BFFFF7DEFF0246BB68D31AFA68C6
:102B68009A42F7D800BF00BF1037BD4680BD00BFEE
:102B78006C00002080B485B000AF78607B6803F0FB
:102B88000703FB600C4BDB68BB60BA684FF6FF03BA
:102B98001340BB60FB681A02BB68134343F0BF6372
:102BA80043F40033BB60044ABB68D36000BF1437EA
:102BB800BD465DF8047B704700ED00E080B400AFCF
:102BC800044BDB681B0A03F007031846BD465DF893
:102BD800047B704700ED00E080B483B000AF03468B
:102BE800FB7197F90730002B0BDBFB7903F01F0211
:102BF800074997F907305B09012000FA02F241F80A
:102C0800232000BF0C37BD465DF8047B704700BF2A
:102C180000E100E080B483B000AF0346FB7197F990
:102C28000730002B12DBFB7903F01F020A4997F9E2
:102C380007305B09012000FA02F2203341F8232013
:102C4800BFF34F8F00BFBFF36F8F00BF00BF0C37BC
:102C5800BD465DF8047B704700E100E080B483B0B6
:102C680000AF03463960FB7197F90730002B0ADB88
:102C78003B68DAB20C4997F907301201D2B20B441B
:102C880083F800230AE03B68DAB20849FB7903F0CD
:102C98000F03043B1201D2B20B441A7600BF0C3763
:102CA800BD465DF8047B704700E100E000ED00E000
:102CB80080B489B000AFF860B9607A60FB6803F04F
:102CC8000703FB61FB69C3F10703042B28BF042337
:102CD800BB61FB690433062B02D9FB69033B00E0A7
:102CE80000237B614FF0FF32BB6902FA03F3DA433A
:102CF800BB681A407B699A404FF0FF317B6901FA43
:102D080003F3D9437B680B40134318462437BD4669
:102D18005DF8047B7047000080B582B000AF786032
:102D28007B68013BB3F1807F01D301230FE00A4A9E
:102D38007B68013B53600F214FF0FF30FFF78EFF98
:102D4800054B00229A60044B07221A60002318469C
:102D58000837BD4680BD00BF10E000E080B582B0F6
:102D680000AF78607868FFF705FF00BF0837BD46F9
:102D780080BD80B586B000AF0346B9607A60FB734A
:102D880000237B61FFF71AFF78617A68B968786970
:102D9800FFF78EFF024697F90F3011461846FFF7E6
:102DA8005DFF00BF1837BD4680BD80B582B000AF5B
:102DB8000346FB7197F907301846FFF70DFF00BF70
:102DC8000837BD4680BD80B582B000AF0346FB71B1
:102DD80097F907301846FFF71DFF00BF0837BD46B3
:102DE80080BD80B582B000AF78607868FFF794FF47
:102DF800034618460837BD4680BD80B586B000AF8B
:102E0800F860B9607A603B600023FB75FB689B6DD6
:102E18003B61FB6893F83430012B01D1022340E079
:102E2800FB68012283F83420FB6893F83530DBB265
:102E3800012B2FD1FB68022283F83520FB68002282
:102E48005A653B687A68B968F86800F050F8FB681A
:102E5800DB6D3F229A403B699A60FB681B681A68E1
:102E6800FB681B6842F016021A60FB681B6C002B9B
:102E780007D0FB681B681A68FB681B6842F00802E9
:102E88001A60FB681B681A68FB681B6842F001023D
:102E98001A6005E0FB68002283F834200223FB75E2
:102EA800FB7D18461837BD4680BD80B483B000AF9F
:102EB80078607B6893F83530DBB2022B04D07B68EE
:102EC80080225A6501230CE07B68052283F83520AF
:102ED8007B681B681A687B681B6822F001021A600D
:102EE800002318460C37BD465DF8047B704780B454
:102EF80085B000AFF860B9607A603B60FB681B681A
:102F08001A68FB681B6822F480221A60FB681B6839
:102F18003A685A60FB689B68402B08D1FB681B68BD
:102F28007A689A60FB681B68BA68DA6007E0FB6831
:102F38001B68BA689A60FB681B687A68DA6000BF29
:102F48001437BD465DF8047B7047000080B489B033
:102F580000AF7860396000237B6100233B61002368
:102F6800BB610023FB6159E10122FB6902FA03F30B
:102F78007B613B681B687A6913403B613A697B69EE
:102F88009A4240F048813B685B6803F00303012BD9
:102F980005D03B685B6803F00303022B30D17B68E4
:102FA8009B68BB61FB695B00032202FA03F3DB4306
:102FB800BA691340BB613B68DA68FB695B0002FAD7
:102FC80003F3BA691343BB617B68BA699A607B688B
:102FD8005B68BB610122FB6902FA03F3DB43BA6950
:102FE8001340BB613B685B681B0903F00102FB6986
:102FF80002FA03F3BA691343BB617B68BA695A6082
:103008003B685B6803F00303032B17D07B68DB681E
:10301800BB61FB695B00032202FA03F3DB43BA6975
:103028001340BB613B689A68FB695B0002FA03F3D3
:10303800BA691343BB617B68BA69DA603B685B684D
:1030480003F00303022B23D1FB69DA087B680832FB
:1030580053F82230BB61FB6903F007039B000F2282
:1030680002FA03F3DB43BA691340BB613B681A6990
:10307800FB6903F007039B0002FA03F3BA691343E1
:10308800BB61FB69DA087B680832B96943F822102A
:103098007B681B68BB61FB695B00032202FA03F3D0
:1030A800DB43BA691340BB613B685B6803F003020A
:1030B800FB695B0002FA03F3BA691343BB617B68DF
:1030C800BA691A603B685B6803F44033002B00F070
:1030D800A2800023FB60574B5B6C564A43F4804345
:1030E8005364544B5B6C03F48043FB60FB68524AA7
:1030F800FB699B08023352F82330BB61FB6903F07C
:1031080003039B000F2202FA03F3DB43BA6913405F
:10311800BB617B68494A934219D07B68484A93420D
:1031280013D07B68474A93420DD07B68464A934246
:1031380007D07B68454A934201D1042308E007235E
:1031480006E0032304E0022302E0012300E0002359
:10315800FA6902F0030292009340BA691343BB6113
:103168003549FB699B080233BA6941F82320384B7B
:103178001B68BB613B69DB43BA691340BB613B68B1
:103188005B6803F48033002B03D0BA693B691343AF
:10319800BB612F4ABB6913602D4B5B68BB613B6900
:1031A800DB43BA691340BB613B685B6803F40033D7
:1031B800002B03D0BA693B691343BB61244ABB693E
:1031C8005360234B9B68BB613B69DB43BA6913407F
:1031D800BB613B685B6803F48013002B03D0BA69BA
:1031E8003B691343BB611A4ABB699360184BDB68A0
:1031F800BB613B69DB43BA691340BB613B685B68F1
:1032080003F40013002B03D0BA693B691343BB6175
:103218000F4ABB69D360FB690133FB61FB690F2B64
:103228007FF6A2AE00BF00BF2437BD465DF8047B21
:10323800704700BF003802400038014000000240DB
:103248000004024000080240000C02400010024046
:10325800003C014080B483B000AF78600B467B80AF
:1032680013467B707B78002B03D07A887B689A6141
:1032780003E07B881A047B689A6100BF0C37BD465F
:103288005DF8047B7047000080B582B000AF03464C
:10329800FB80084B5A69FB881340002B06D0054A6F
:1032A800FB885361FB881846FEF77AFA00BF083797
:1032B800BD4680BD003C014080B586B000AF786057
:1032C8007B68002B01D1012364E27B681B6803F053
:1032D8000103002B75D0A34B9B6803F00C03042B50
:1032E8000CD0A04B9B6803F00C03082B12D19D4B0C
:1032F8005B6803F48003B3F5800F0BD1994B1B680F
:1033080003F40033002B5BD07B685B68002B57D13C
:1033180001233FE27B685B68B3F5803F06D1914BA0
:103328001B68904A43F4803313601DE07B685B6838
:10333800B3F5A02F0CD18B4B1B688A4A43F480232A
:103348001360884B1B68874A43F4803313600BE093
:10335800844B1B68834A23F480331360814B1B68BA
:10336800804A23F4802313607B685B68002B13D0AA
:10337800FFF7D0FB386108E0FFF7CCFB02463B695A
:10338800D31A642B01D9032304E2764B1B6803F498
:103398000033002BF0D014E0FFF7BCFB386108E0E5
:1033A800FFF7B8FB02463B69D31A642B01D9032304
:1033B800F0E16C4B1B6803F40033002BF0D100E004
:1033C80000BF7B681B6803F00203002B63D0654BCA
:1033D8009B6803F00C03002B0BD0624B9B6803F037
:1033E8000C03082B1CD15F4B5B6803F48003002B94
:1033F80016D15C4B1B6803F00203002B05D07B68D9
:10340800DB68012B01D00123C4E1564B1B6823F074
:10341800F8027B681B69DB00524913430B603AE0F2
:103428007B68DB68002B20D04F4B01221A60FFF726
:1034380071FB386108E0FFF76DFB02463B69D31A60
:10344800022B01D90323A5E1464B1B6803F00203B5
:10345800002BF0D0434B1B6823F0F8027B681B69F4
:10346800DB00404913430B6015E03F4B00221A6014
:10347800FFF750FB386108E0FFF74CFB02463B6959
:10348800D31A022B01D9032384E1364B1B6803F0BE
:103498000203002BF0D17B681B6803F00803002BA4
:1034A80030D07B685B69002B16D0304B01221A6044
:1034B800FFF730FB386108E0FFF72CFB02463B6959
:1034C800D31A022B01D9032364E1264B5B6F03F067
:1034D8000203002BF0D015E0244B00221A60FFF7FE
:1034E80019FB386108E0FFF715FB02463B69D31A60
:1034F800022B01D903234DE11A4B5B6F03F0020342
:10350800002BF0D17B681B6803F00403002B00F04C
:10351800A0800023FB75134B1B6C03F08053002B1A
:103528000FD10023BB600F4B1B6C0E4A43F0805336
:1035380013640C4B1B6C03F08053BB60BB68012306
:10354800FB750B4B1B6803F48073002B21D1084BD0
:103558001B68074A43F480731360FFF7DBFA38618E
:1035680011E000BF0038024000004742800E474289
:1035780000700040FFF7CEFA02463B69D31A022BCF
:1035880001D9032306E1854B1B6803F48073002BE4
:10359800F0D07B689B68012B06D1814B1B6F804A5A
:1035A80043F0010313671CE07B689B68052B0CD173
:1035B8007B4B1B6F7A4A43F004031367784B1B6FEE
:1035C800774A43F0010313670BE0754B1B6F744A8E
:1035D80023F001031367724B1B6F714A23F0040336
:1035E80013677B689B68002B15D0FFF793FA386147
:1035F8000AE0FFF78FFA02463B69D31A41F2883294
:10360800934201D90323C5E0654B1B6F03F0020306
:10361800002BEED014E0FFF77DFA38610AE0FFF7DF
:1036280079FA02463B69D31A41F28832934201D9AA
:103638000323AFE05A4B1B6F03F00203002BEED1BC
:10364800FB7D012B05D1564B1B6C554A23F080534B
:1036580013647B689B69002B00F09B80504B9B6830
:1036680003F00C03082B5CD07B689B69022B41D1CB
:103678004C4B00221A60FFF74DFA386108E0FFF75B
:1036880049FA02463B69D31A022B01D9032381E088
:10369800434B1B6803F00073002BF0D17B68DA6999
:1036A8007B681B6A1A437B685B6A9B011A437B68C9
:1036B8009B6A5B08013B1B041A437B68DB6A1B0699
:1036C800374913434B60374B01221A60FFF722FA40
:1036D800386108E0FFF71EFA02463B69D31A022B4D
:1036E80001D9032356E02E4B1B6803F00073002B0F
:1036F800F0D04EE02B4B00221A60FFF70BFA38612E
:1037080008E0FFF707FA02463B69D31A022B01D9F2
:1037180003233FE0224B1B6803F00073002BF0D11A
:1037280037E07B689B69012B01D1012332E01C4BF8
:103738005B68FB607B689B69012B28D0FB6803F4FE
:1037480080027B68DB699A4221D1FB6803F03F0263
:103758007B681B6A9A421AD1FA6847F6C07313400D
:103768007A68526A9201934211D1FB6803F440329D
:103778007B689B6A5B08013B1B049A4207D1FB6884
:1037880003F070627B68DB6A1B069A4201D0012352
:1037980000E0002318461837BD4680BD0070004081
:1037A800003802406000474280B584B000AF7860BE
:1037B80039607B68002B01D10123CCE0684B1B6882
:1037C80003F007033A689A420CD9654B3A68D2B2BB
:1037D8001A70634B1B6803F007033A689A4201D0DA
:1037E8000123B8E07B681B6803F00203002B20D09C
:1037F8007B681B6803F00403002B05D0594B9B68BA
:10380800584A43F4E05393607B681B6803F008034D
:10381800002B05D0534B9B68524A43F46043936096
:10382800504B9B6823F0F0027B689B684D4913431B
:103838008B607B681B6803F00103002B44D07B6816
:103848005B68012B07D1474B1B6803F40033002B3F
:1038580019D101237FE07B685B68022B03D07B686A
:103868005B68032B07D13F4B1B6803F00073002BE9
:1038780009D101236FE03B4B1B6803F00203002BC7
:1038880001D1012367E0374B9B6823F003027B6873
:103898005B68344913438B60FFF73CF9F8600AE032
:1038A800FFF738F90246FB68D31A41F2883293428F
:1038B80001D903234FE02B4B9B6803F00C027B6874
:1038C8005B689B009A42EBD1254B1B6803F007030A
:1038D8003A689A420CD2224B3A68D2B21A70204BFC
:1038E8001B6803F007033A689A4201D0012332E0CB
:1038F8007B681B6803F00403002B08D0194B9B68F6
:1039080023F4E0527B68DB68164913438B607B68BD
:103918001B6803F00803002B09D0124B9B6823F4A3
:1039280060427B681B69DB000E4913438B6000F023
:1039380021F802460B4B9B681B0903F00F030A4949
:10394800CB5C22FA03F3094A1360094B1B6818463B
:10395800FFF79CF8002318461037BD4680BD00BF0E
:10396800003C0240003802407C74040864000020D7
:1039780068000020B0B584B000AF00217960002154
:10398800F960002139600021B9605249896801F065
:103998000C0108290DD0082900F29480002902D0D2
:1039A800042903D08EE04C4BBB608EE04B4BBB60D0
:1039B8008BE04849496801F03F0179604549496809
:1039C80001F48001002924D0424949688909084640
:1039D8004FF0000140F2FF144FF0000500EA040226
:1039E80001EA05033D4901FB03F0002101FB02F157
:1039F80044183A49A2FB0101631819467B681A4624
:103A08004FF00003FCF7ECFB02460B461346FB6045
:103A18004AE0304B5B689B091A464FF0000340F2BE
:103A2800FF104FF0000102EA000403EA01052046F6
:103A380029464FF000024FF000034B0143EAD063E0
:103A4800420110461946001B61EB05014FF00002C8
:103A58004FF000038B0143EA90638201121A63EB73
:103A680001034FF000004FF00001D90041EA527104
:103A7800D00002460B46121945EB03034FF0000035
:103A88004FF00001990241EA9251900202460B461A
:103A9800104619467B681A464FF00003FCF7A0FB56
:103AA80002460B461346FB600A4B5B681B0C03F08F
:103AB800030301335B003B60FA683B68B2FBF3F336
:103AC800BB6002E0044BBB6000BFBB681846103700
:103AD800BD46B0BD003802400024F40040787D01A6
:103AE80080B582B000AF78607B68002B01D10123DC
:103AF8007BE07B685B6A002B08D17B685B68B3F569
:103B0800827F09D07B680022DA6105E07B680022A9
:103B18001A617B6800225A617B6800229A627B687E
:103B280093F85130DBB2002B06D17B68002283F872
:103B380050207868FEF790FD7B68022283F85120B8
:103B48007B681B681A687B681B6822F040021A6051
:103B58007B685B6803F482727B689B6803F40443A8
:103B68001A437B68DB6803F400631A437B681B69AC
:103B780003F002031A437B685B6903F001031A43ED
:103B88007B689B6903F400731A437B68DB6903F065
:103B980038031A437B681B6A03F0800342EA030177
:103BA8007B689B6A03F400527B681B680A431A60AF
:103BB8007B689B691B0C03F004017B685B6A03F05C
:103BC80010027B681B680A435A607B681B68DA69C5
:103BD8007B681B6822F40062DA617B6800225A6500
:103BE8007B68012283F85120002318460837BD4618
:103BF80080BD80B588B000AFF860B9603B601346FF
:103C0800FB800023FB77FB6893F85030012B01D130
:103C1800022326E1FB68012283F85020FEF77AFF91
:103C2800B861FB88FB82FB6893F85130DBB2012B4B
:103C380002D00223FB770BE1BB68002B02D0FB8884
:103C4800002B02D10123FB7702E1FB68032283F8F2
:103C58005120FB6800225A65FB68BA681A63FB6842
:103C6800FA889A86FB68FA88DA86FB6800229A63E3
:103C7800FB6800229A87FB680022DA87FB6800222B
:103C88005A64FB6800221A64FB689B68B3F5004F0E
:103C98000FD1FB681B681A68FB681B6822F040029A
:103CA8001A60FB681B681A68FB681B6842F480424C
:103CB8001A60FB681B681B6803F04003402B07D0A1
:103CC800FB681B681A68FB681B6842F040021A60B0
:103CD800FB68DB68B3F5006F4BD1FB685B68002BB2
:103CE80002D0FB8A012B3ED1FB681B6B1A88FB684C
:103CF8001B68DA60FB681B6B9A1CFB681A63FB681D
:103D0800DB8E9BB2013B9AB2FB68DA862BE0FB683C
:103D18001B689B6803F00203022B12D1FB681B6B24
:103D28001A88FB681B68DA60FB681B6B9A1CFB68C7
:103D38001A63FB68DB8E9BB2013B9AB2FB68DA869A
:103D480011E0FEF7E7FE0246BB69D31A3A689A42C9
:103D580003D83B68B3F1FF3F02D13B68002B02D187
:103D68000323FB7774E0FB68DB8E9BB2002BCED17C
:103D78004CE0FB685B68002B02D0FB8A012B40D12A
:103D8800FB681A6BFB681B680C3312781A70FB68A7
:103D98001B6B5A1CFB681A63FB68DB8E9BB2013BEA
:103DA8009AB2FB68DA862CE0FB681B689B6803F014
:103DB8000203022B13D1FB681A6BFB681B680C33D8
:103DC80012781A70FB681B6B5A1CFB681A63FB6835
:103DD800DB8E9BB2013B9AB2FB68DA8611E0FEF7F4
:103DE80099FE0246BB69D31A3A689A4203D83B68DF
:103DF800B3F1FF3F02D13B68002B02D10323FB77CD
:103E080026E0FB68DB8E9BB2002BCDD1BA693968FE
:103E1800F86800F02BFB0346002B02D0FB68202239
:103E28005A65FB689B68002B0AD100233B61FB683D
:103E38001B68DB683B61FB681B689B683B613B69EF
:103E4800FB685B6D002B02D00123FB7700E000BF0D
:103E5800FB68012283F85120FB68002283F8502078
:103E6800FB7F18462037BD4680BD000080B586B070
:103E780000AFF860B9601346FB800023FB75FB6850
:103E880093F85030012B01D102239BE0FB680122FB
:103E980083F85020FB6893F85130DBB2012B02D035
:103EA8000223FB7589E0BB68002B02D0FB88002B3E
:103EB80002D10123FB7580E0FB68032283F85120BF
:103EC800FB6800225A65FB68BA681A63FB68FA88BF
:103ED8009A86FB68FA88DA86FB6800229A63FB6890
:103EE80000225A64FB6800221A64FB6800229A8741
:103EF800FB680022DA87FB689B68B3F5004F0FD197
:103F0800FB681B681A68FB681B6822F040021A608D
:103F1800FB681B681A68FB681B6842F480421A60D9
:103F2800FB689B6C294A1A64FB689B6C284ADA6315
:103F3800FB689B6C274ADA64FB689B6C00221A6555
:103F4800FB68986CFB681B6B1946FB681B680C3395
:103F58001A46FB68DB8E9BB2FEF74FFF0346002B29
:103F68000CD0FB685B6D43F01002FB685A650123B7
:103F7800FB75FB68012283F851201EE0FB681B6873
:103F88001B6803F04003402B07D0FB681B681A68C6
:103F9800FB681B6842F040021A60FB681B685A689D
:103FA800FB681B6842F020025A60FB681B685A686D
:103FB800FB681B6842F002025A60FB68002283F823
:103FC8005020FB7D18461837BD4680BDE1420008E9
:103FD80039420008FD42000880B588B000AF78601B
:103FE8007B681B685B68FB617B681B689B68BB61BF
:103FF800BB699B0903F00103002B0FD1BB6903F0D8
:104008000103002B0AD0FB699B0903F00103002B75
:1040180004D07B681B6C78689847D7E0BB695B085D
:1040280003F00103002B0AD0FB69DB0903F001034D
:10403800002B04D07B685B6C78689847C6E0BB6946
:104048005B0903F00103002B0CD1BB699B0903F04A
:104058000103002B06D1BB691B0A03F00103002BE7
:1040680000F0B480FB695B0903F00103002B00F04A
:10407800AD80BB699B0903F00103002B23D07B684B
:1040880093F85130DBB2032B11D07B685B6D43F0A2
:1040980004027B685A6500237B617B681B68DB68C8
:1040A8007B617B681B689B687B617B690BE00023F5
:1040B8003B617B681B68DB683B617B681B689B68AE
:1040C8003B613B6982E0BB695B0903F00103002B9C
:1040D80014D07B685B6D43F001027B685A6500234E
:1040E800FB607B681B689B68FB607B681B681A68C1
:1040F8007B681B6822F040021A60FB68BB691B0AD8
:1041080003F00103002B0CD07B685B6D43F00802C1
:104118007B685A650023BB607B681B689B68BB6033
:10412800BB687B685B6D002B4FD07B681B685A6847
:104138007B681B6822F0E0025A607B68012283F8E2
:104148005120FB6903F00203002B04D1FB6903F043
:104158000103002B34D07B681B685A687B681B6896
:1041680022F003025A607B68DB6C002B11D07B685D
:10417800DB6C184A1A657B68DB6C1846FEF795FEFF
:104188000346002B05D07B685B6D43F040027B68DB
:104198005A657B689B6C002B16D07B689B6C0D4A1C
:1041A8001A657B689B6C1846FEF77FFE0346002B5A
:1041B8000AD07B685B6D43F040027B685A6503E078
:1041C800786800F01DF800E000BF00BF2037BD464A
:1041D80080BD00BF3D43000880B483B000AF786065
:1041E80000BF0C37BD465DF8047B704780B483B0D0
:1041F80000AF786000BF0C37BD465DF8047B7047A0
:1042080080B483B000AF786000BF0C37BD465DF85E
:10421800047B704780B483B000AF78607B6893F804
:104228005130DBB218460C37BD465DF8047B704749
:1042380080B586B000AF78607B689B6B7B61FEF7CA
:1042480069FC38617B681B681B6803F48073B3F5ED
:10425800807F3BD07B691B685A687B691B6822F0AA
:1042680020025A607B691B685A687B691B6822F0C8
:1042780002025A603A696421786900F0F7F8034647
:10428800002B05D07B695B6D43F020027B695A6582
:104298007B699B68002B0AD10023FB607B691B6844
:1042A800DB68FB607B691B689B68FB60FB687B695C
:1042B8000022DA867B69012283F851207B695B6DD5
:1042C800002B03D07869FFF79BFF02E07869FFF7BE
:1042D80083FF1837BD4680BD80B584B000AF7860D5
:1042E8007B689B6BFB60F868FFF780FF00BF1037A7
:1042F800BD4680BD80B584B000AF78607B689B6B9D
:10430800FB60FB681B685A68FB681B6822F00302A5
:104318005A60FB685B6D43F01002FB685A65FB68E6
:10432800012283F85120F868FFF76AFF00BF1037B1
:10433800BD4680BD80B584B000AF78607B689B6B5C
:10434800FB60FB680022DA87FB680022DA86F868DF
:10435800FFF756FF00BF1037BD4680BD80B588B057
:1043680000AFF860B9603B601346FB71FEF7D2FB03
:104378000246BB6A9B1A3A681344FB61FEF7CAFB04
:10438800B861394B1B685B011B0DFA6902FB03F32B
:104398007B6154E03B68B3F1FF3F50D0FEF7BAFBB6
:1043A8000246BB69D31AFA699A4202D9FB69002B03
:1043B8003DD1FB681B685A68FB681B6822F0E00265
:1043C8005A60FB685B68B3F5827F11D1FB689B6814
:1043D800B3F5004F04D0FB689B68B3F5806F07D135
:1043E800FB681B681A68FB681B6822F040021A60A9
:1043F800FB689B6AB3F5005F0FD1FB681B681A68FE
:10440800FB681B6822F400521A60FB681B681A6874
:10441800FB681B6842F400521A60FB68012283F8AB
:104428005120FB68002283F85020032317E07B69A2
:10443800002B01D10023FB617B69013B7B61FB6899
:104448001B689A68BB681340BA689A420CBF01237C
:104458000023DBB21A46FB799A429BD10023184607
:104468002037BD4680BD00BF6400002080B588B0FD
:1044780002AFF860B9607A601B4B1B681B4AA2FB4D
:1044880003235B0D4FF47A7202FB03F37B61FB6835
:104498005B68B3F5827F12D17B680093BB6800220A
:1044A8008021F868FFF75AFF0346002B16D0FB68F7
:1044B8005B6D43F02002FB685A6503230FE07B69BC
:1044C800002B0AD07B69013B7B61FB681B689B68FA
:1044D80003F08003802BF2D000E000BF00231846D1
:1044E8001837BD4680BD00BF64000020819F5E165E
:1044F80080B582B000AF78607B68002B01D10123C2
:1045080041E07B6893F83D30DBB2002B06D17B6835
:10451800002283F83C207868FEF7EEF87B680222D8
:1045280083F83D207B681A687B6804331946104677
:1045380000F054FC7B68012283F846207B68012246
:1045480083F83E207B68012283F83F207B680122A4
:1045580083F840207B68012283F841207B68012290
:1045680083F842207B68012283F843207B6801227C
:1045780083F844207B68012283F845207B68012268
:1045880083F83D20002318460837BD4680BD00004B
:1045980080B485B000AF78607B6893F83D30DBB2BB
:1045A800012B01D0012344E07B68022283F83D20DF
:1045B8007B681B68DA687B681B6842F00102DA6076
:1045C8007B681B681E4A934218D07B681B68B3F14E
:1045D800804F13D07B681B681A4A93420ED07B68C1
:1045E8001B68194A934209D07B681B68174A934293
:1045F80004D07B681B68164A934211D17B681B68FC
:104608009B6803F00703FB60FB68062B10D07B68F0
:104618001B681A687B681B6842F001021A6007E091
:104628007B681B681A687B681B6842F001021A6085
:10463800002318461437BD465DF8047B704700BF59
:10464800000001400004004000080040000C004049
:104658000040014080B582B000AF78607B68002BD5
:1046680001D1012341E07B6893F83D30DBB2002B98
:1046780006D17B68002283F83C20786800F039F87E
:104688007B68022283F83D207B681A687B680433C4
:104698001946104600F0A2FB7B68012283F84620E9
:1046A8007B68012283F83E207B68012283F83F2043
:1046B8007B68012283F840207B68012283F841202F
:1046C8007B68012283F842207B68012283F843201B
:1046D8007B68012283F844207B68012283F8452007
:1046E8007B68012283F83D20002318460837BD4621
:1046F80080BD80B483B000AF786000BF0C37BD4682
:104708005DF8047B7047000080B584B000AF786026
:1047180039603B68002B09D17B6893F83E30DBB2E7
:10472800012B14BF01230023DBB222E03B68042BDA
:1047380009D17B6893F83F30DBB2012B14BF01230A
:104748000023DBB215E03B68082B09D17B6893F89E
:104758004030DBB2012B14BF01230023DBB208E099
:104768007B6893F84130DBB2012B14BF012300238F
:10477800DBB2002B01D0012368E03B68002B04D199
:104788007B68022283F83E2013E03B68042B04D1A7
:104798007B68022283F83F200BE03B68082B04D19A
:1047A8007B68022283F8402003E07B68022283F8BA
:1047B80041207B681B6801223968184600F0B4FD67
:1047C8007B681B68234A934207D17B681B685A6C35
:1047D8007B681B6842F400425A647B681B681D4A68
:1047E800934218D07B681B68B3F1804F13D07B6865
:1047F8001B68194A93420ED07B681B68174A93427C
:1048080009D07B681B68164A934204D07B681B68F2
:10481800144A934211D17B681B689B6803F0070315
:10482800FB60FB68062B10D07B681B681A687B68E6
:104838001B6842F001021A6007E07B681B681A686F
:104848007B681B6842F001021A6000231846103783
:10485800BD4680BD00000140000400400008004043
:10486800000C00400040014080B582B000AF786085
:104878007B681B681B6903F00203022B22D17B684B
:104888001B68DB6803F00203022B1BD17B681B68E3
:104898006FF002021A617B6801221A777B681B6835
:1048A8009B6903F00303002B03D0786800F077FAC4
:1048B80005E0786800F069FA786800F07AFA7B68B1
:1048C80000221A777B681B681B6903F00403042B1A
:1048D80022D17B681B68DB6803F00403042B1BD11F
:1048E8007B681B686FF004021A617B6802221A77E2
:1048F8007B681B689B6903F44073002B03D07868BE
:1049080000F04DFA05E0786800F03FFA786800F0AA
:1049180050FA7B6800221A777B681B681B6903F0D2
:104928000803082B22D17B681B68DB6803F00803A7
:10493800082B1BD17B681B686FF008021A617B6823
:1049480004221A777B681B68DB6903F00303002BDA
:1049580003D0786800F023FA05E0786800F015FACB
:10496800786800F026FA7B6800221A777B681B6853
:104978001B6903F01003102B22D17B681B68DB68CE
:1049880003F01003102B1BD17B681B686FF010021B
:104998001A617B6808221A777B681B68DB6903F455
:1049A8004073002B03D0786800F0F9F905E07868C7
:1049B80000F0EBF9786800F0FCF97B6800221A77C0
:1049C8007B681B681B6903F00103012B0ED17B6810
:1049D8001B68DB6803F00103012B07D17B681B68A8
:1049E8006FF001021A617868FCF754FF7B681B6856
:1049F8001B6903F08003802B0ED17B681B68DB6882
:104A080003F08003802B07D17B681B686FF080025E
:104A18001A61786800F078FD7B681B681B6903F0F1
:104A28004003402B0ED17B681B68DB6803F0400312
:104A3800402B07D17B681B686FF040021A617868C9
:104A480000F0C1F97B681B681B6903F02003202B69
:104A58000ED17B681B68DB6803F02003202B07D18D
:104A68007B681B686FF020021A61786800F042FDCD
:104A780000BF0837BD4680BD80B586B000AFF8607E
:104A8800B9607A600023FB75FB6893F83C30012B12
:104A980001D10223AEE0FB68012283F83C207B6849
:104AA8000C2B00F29F8001A252F823F0E94A00087B
:104AB800ED4B0008ED4B0008ED4B0008294B0008B2
:104AC800ED4B0008ED4B0008ED4B00086B4B000860
:104AD800ED4B0008ED4B0008ED4B0008AB4B000810
:104AE800FB681B68B968184600F0F8F9FB681B6892
:104AF8009A69FB681B6842F008029A61FB681B68A8
:104B08009A69FB681B6822F004029A61FB681B68BB
:104B18009969BB681A69FB681B680A439A6164E073
:104B2800FB681B68B968184600F03EFAFB681B680A
:104B38009A69FB681B6842F400629A61FB681B680B
:104B48009A69FB681B6822F480629A61FB681B689B
:104B58009969BB681B691A02FB681B680A439A615A
:104B680043E0FB681B68B968184600F089FAFB68DF
:104B78001B68DA69FB681B6842F00802DA61FB68A7
:104B88001B68DA69FB681B6822F00402DA61FB68BB
:104B98001B68D969BB681A69FB681B680A43DA6134
:104BA80023E0FB681B68B968184600F0D3FAFB6875
:104BB8001B68DA69FB681B6842F40062DA61FB680B
:104BC8001B68DA69FB681B6822F48062DA61FB689B
:104BD8001B68D969BB681B691A02FB681B680A4312
:104BE800DA6102E00123FB7500BFFB68002283F84D
:104BF8003C20FB7D18461837BD4680BD80B584B083
:104C080000AF786039600023FB737B6893F83C3011
:104C1800012B01D10223B4E07B68012283F83C20F8
:104C28007B68022283F83D207B681B689B68BB6019
:104C3800BB6823F07703BB60BB6823F47F43BB608A
:104C48007B681B68BA689A603B681B68B3F5005FAD
:104C58003ED0B3F5005F00F28780B3F5805F00F0C7
:104C68008680B3F5805F7FD8702B1AD0702B7BD8E5
:104C7800602B50D0602B77D8502B3CD0502B73D85A
:104C8800402B58D0402B6FD8302B64D0302B6BD8AA
:104C9800202B60D0202B67D8002B5CD0102B5AD04B
:104CA80062E07B6818683B6899683B685A683B68AB
:104CB800DB6800F019FB7B681B689B68BB60BB68FE
:104CC80043F07703BB607B681B68BA689A604FE063
:104CD8007B6818683B6899683B685A683B68DB687A
:104CE80000F002FB7B681B689A687B681B6842F4CB
:104CF80080429A603CE07B6818683B6859683B686A
:104D0800DB681A4600F076FA7B681B685021184663
:104D180000F0CFFA2CE07B6818683B6859683B685C
:104D2800DB681A4600F095FA7B681B686021184614
:104D380000F0BFFA1CE07B6818683B6859683B685C
:104D4800DB681A4600F056FA7B681B684021184653
:104D580000F0AFFA0CE07B681A683B681B681946DC
:104D6800104600F0A6FA03E00123FB7300E000BF41
:104D78007B68012283F83D207B68002283F83C2071
:104D8800FB7B18461037BD4680BD80B483B000AFAA
:104D9800786000BF0C37BD465DF8047B704780B46F
:104DA80083B000AF786000BF0C37BD465DF8047B68
:104DB800704780B483B000AF786000BF0C37BD4641
:104DC8005DF8047B704780B483B000AF786000BFA3
:104DD8000C37BD465DF8047B7047000080B485B091
:104DE80000AF786039607B681B68FB607B68344A79
:104DF80093420FD07B68B3F1804F0BD07B68314A68
:104E0800934207D07B68304A934203D07B682F4A8D
:104E1800934208D1FB6823F07003FB603B685B6832
:104E2800FA681343FB607B68254A93421BD07B6872
:104E3800B3F1804F17D07B68224A934213D07B6826
:104E4800214A93420FD07B68204A93420BD07B685B
:104E58001F4A934207D07B681E4A934203D07B685F
:104E68001D4A934208D1FB6823F44073FB603B68FA
:104E7800DB68FA681343FB60FB6823F080023B6839
:104E88005B691343FB607B68FA681A603B689A6841
:104E98007B68DA623B681A687B689A627B68084AB2
:104EA800934203D13B681A697B681A637B680122C5
:104EB8005A6100BF1437BD465DF8047B704700BFD8
:104EC800000001400004004000080040000C0040C1
:104ED80000400140004401400048014080B487B0D0
:104EE80000AF786039607B681B6A23F001027B6839
:104EF8001A627B681B6A7B617B685B683B617B68C5
:104F08009B69FB60FB6823F07003FB60FB6823F080
:104F18000303FB603B681B68FA681343FB607B690B
:104F280023F002037B613B689B687A6913437B61CA
:104F38007B681C4A93420CD17B6923F008037B6190
:104F48003B68DB687A6913437B617B6923F0040360
:104F58007B617B68134A934211D13B6923F48073C8
:104F68003B613B6923F400733B613B685B693A69C9
:104F780013433B613B689B693A6913433B617B6818
:104F88003A695A607B68FA689A613B685A687B6834
:104F98005A637B687A691A6200BF1C37BD465DF8A0
:104FA800047B70470000014080B487B000AF786090
:104FB80039607B681B6A23F010027B681A627B6881
:104FC8001B6A7B617B685B683B617B689B69FB60F4
:104FD800FB6823F4E043FB60FB6823F44073FB6049
:104FE8003B681B681B02FA681343FB607B6923F06C
:104FF80020037B613B689B681B017A6913437B61D3
:105008007B681E4A93420DD17B6923F080037B6144
:105018003B68DB681B017A6913437B617B6923F07A
:1050280040037B617B68154A934213D13B6923F4A3
:1050380080633B613B6923F400633B613B685B69C8
:105048009B003A6913433B613B689B699B003A6943
:1050580013433B617B683A695A607B68FA689A61D6
:105068003B685A687B689A637B687A691A6200BFF2
:105078001C37BD465DF8047B704700BF0000014047
:1050880080B487B000AF786039607B681B6A23F40E
:1050980080727B681A627B681B6A7B617B685B68CD
:1050A8003B617B68DB69FB60FB6823F07003FB6096
:1050B800FB6823F00303FB603B681B68FA68134333
:1050C800FB607B6923F400737B613B689B681B0270
:1050D8007A6913437B617B681D4A93420DD17B69D2
:1050E80023F400637B613B68DB681B027A69134326
:1050F8007B617B6923F480637B617B68144A9342FC
:1051080013D13B6923F480533B613B6923F400537B
:105118003B613B685B691B013A6913433B613B6830
:105128009B691B013A6913433B617B683A695A6082
:105138007B68FA68DA613B685A687B68DA637B687F
:105148007A691A6200BF1C37BD465DF8047B704758
:105158000000014080B487B000AF786039607B6898
:105168001B6A23F480527B681A627B681B6A3B6166
:105178007B685B687B617B68DB69FB60FB6823F4A9
:10518800E043FB60FB6823F44073FB603B681B68EB
:105198001B02FA681343FB603B6923F400533B612D
:1051A8003B689B681B033A6913433B617B68104A61
:1051B800934209D17B6923F480437B613B685B6937
:1051C8009B017A6913437B617B687A695A607B68C3
:1051D800FA68DA613B685A687B681A647B683A69DE
:1051E8001A6200BF1C37BD465DF8047B704700BFDC
:1051F8000000014080B487B000AFF860B9607A6001
:10520800FB681B6A7B61FB681B6A23F00102FB6871
:105218001A62FB689B693B613B6923F0F0033B61C1
:105228007B681B013A6913433B617B6923F00A03DE
:105238007B617A69BB6813437B61FB683A699A6151
:10524800FB687A691A6200BF1C37BD465DF8047BAB
:10525800704780B487B000AFF860B9607A60FB68C7
:105268001B6A23F01002FB681A62FB689B697B616A
:10527800FB681B6A3B617B6923F470437B617B6835
:105288001B037A6913437B613B6923F0A0033B61ED
:10529800BB681B013A6913433B61FB687A699A61F1
:1052A800FB683A691A6200BF1C37BD465DF8047B8B
:1052B800704780B485B000AF786039607B689B68C0
:1052C800FB60FB6823F07003FB603A68FB681343DC
:1052D80043F00703FB607B68FA689A6000BF1437E5
:1052E800BD465DF8047B704780B487B000AFF860B6
:1052F800B9607A603B60FB689B687B617B6923F4DB
:105308007F437B613B681A027B681A43BB6813437F
:105318007A6913437B61FB687A699A6000BF1C371E
:10532800BD465DF8047B704780B487B000AFF86075
:10533800B9607A60BB6803F01F03012202FA03F325
:105348007B61FB681A6A7B69DB431A40FB681A6257
:10535800FB681A6ABB6803F01F03796801FA03F354
:105368001A43FB681A6200BF1C37BD465DF8047B10
:105378007047000080B485B000AF786039607B6802
:1053880093F83C30012B01D1022350E07B680122C5
:1053980083F83C207B68022283F83D207B681B68E9
:1053A8005B68FB607B681B689B68BB60FB6823F0DD
:1053B8007003FB603B681B68FA681343FB607B68FB
:1053C8001B68FA685A607B681B681C4A934218D0AD
:1053D8007B681B68B3F1804F13D07B681B68184A41
:1053E80093420ED07B681B68164A934209D07B68AB
:1053F8001B68154A934204D07B681B68134A934282
:105408000CD1BB6823F08003BB603B685B68BA685B
:105418001343BB607B681B68BA689A607B6801228B
:1054280083F83D207B68002283F83C20002318463F
:105438001437BD465DF8047B704700BF000001408B
:105448000004004000080040000C004000400140FB
:1054580080B485B000AF786039600023FB607B685A
:1054680093F83C30012B01D102233DE07B680122F7
:1054780083F83C20FB6823F0FF023B68DB6813439A
:10548800FB60FB6823F440723B689B681343FB6036
:10549800FB6823F480623B685B681343FB60FB682E
:1054A80023F400623B681B681343FB60FB6823F42A
:1054B80080523B681B691343FB60FB6823F400526E
:1054C8003B685B691343FB60FB6823F480423B68DD
:1054D800DB691343FB607B681B68FA685A647B6866
:1054E800002283F83C20002318461437BD465DF897
:1054F800047B704780B483B000AF786000BF0C377E
:10550800BD465DF8047B704780B483B000AF786017
:1055180000BF0C37BD465DF8047B704770B50D4D74
:105528000D4C641BA4100026A64209D10B4D0C4C4F
:1055380000F034F8641BA4100026A64205D170BD03
:1055480055F8043B98470136EEE755F8043B984771
:105558000136F2E7947404089474040894740408F7
:105568009874040802440346934200D1704703F834
:10557800011BF9E710B50139034632B111F8014FA3
:1055880003F8014B013A002CF7D11A440021934249
:1055980000D110BD03F8011BF9E70000F8B500BF02
:1055A800F8BC08BC9E467047F8B500BFF8BC08BCFC
:0455B8009E46704754
:1055BC00392C00340200000000C130008500780056
:1055CC00088227000F312B0C0E084EF13707100301
:1055DC000E090000000E1403110731C148080F0C0E
:1055EC0031360F004D6F7A6172742053796D70688B
:1055FC006F6E7934300000005465747269732054F6
:10560C0068656D6500000000546F6B796F2047680A
:10561C006F756C00517565656E202020426F686552
:10562C006D69616E2052686170736F64790000005F
:10563C004C696E6B696E205061726B204E756D6299
:10564C0000000000312E204D454E55204D5553493C
:10565C0043000000322E20435245444954532054F9
:10566C0045414D00312E2044616E672054686169BC
:10567C00204B68616E67202D203234353230373242
:10568C0038000000322E2054726965752051756FF8
:10569C006320487579202D2032343532303730393B
:1056AC0000000000332E205068616E204B68616E44
:1056BC00682054616D202D20323435323135363925
:1056CC0000000000342E204E677579656E204475FD
:1056DC00632054616E204B696574202D2032343563
:1056EC003230393035000000352E20446965702089
:1056FC004B68616920486F616E67202D203234350C
:10570C003230353238000000362E204E6775796500
:10571C006E2056616E2048696575202D2032343517
:10572C00323035313000000053595354454D204D23
:10573C0041494E204855420055702F446F776E3AC0
:10574C00204D6F7665207C2053656C6563743A2020
:10575C00456E7465720000004D55534943204C4909
:10576C00535400002E2E2E005B4241434B5D3A20D9
:10577C0052657475726E204D61696E2048756200B9
:10578C004E4F5720504C4159494E4700506C61794F
:10579C00696E6720536F6E673A0000003C3C000056
:1057AC00203E20007C7C00003E3E00004C2F523AF4
:1057BC0020507265762F4E657874207C2053656C72
:1057CC006563743A205061757365207C205B42419F
:1057DC00434B5D3A204D656E7500000047524F55A6
:1057EC0050204352454449545300000050524F4AF4
:1057FC004543543A454D424544444544204D50336D
:10580C0020504C41594552004D656E746F723A20D0
:10581C005468732E205068616D204D696E6820515C
:10582C0075616E004D6F7A6172742053796D70687A
:10583C006F6E7934300000005465747269732054B3
:10584C0068656D6500000000546F6B796F204768C8
:10585C006F756C00517565656E202020426F686510
:10586C006D69616E2052686170736F64790000001D
:10587C004C696E6B696E205061726B204E756D6257
:10588C00000000000000000000000000000000000C
:10589C0000000000000000000010001000100010BC
:1058AC00001000100000001000000000002800286C
:1058BC0000280000000000000000000000000000B4
:1058CC0000240024007C00240048007C0048004890
:1058DC000000000000380054005000380014005440
:1058EC000054003800100000002000540058003014
:1058FC0000280054001400080000000000100028CC
:10590C00002800100034004800480034000000005B
:10591C00001000100010000000000000000000004B
:10592C0000000000000800100020002000200020D3
:10593C0000200020001000080020001000080008C3
:10594C0000080008000800080010002000100038B3
:10595C000010002800000000000000000000000003
:10596C000000000000100010007C0010001000006F
:10597C00000000000000000000000000000000001B
:10598C0000000010001000100000000000000000DB
:10599C0000000038000000000000000000000000C3
:1059AC0000000000000000000000001000000000DB
:1059BC00000800080010001000100010002000204B
:1059CC00000000000038004400440054004400442F
:1059DC00004400380000000000100030005000109F
:1059EC0000100010001000100000000000380044EF
:1059FC0000440004000800100020007C000000009F
:105A0C00003800440004001800040004004400386E
:105A1C000000000000080018002800280048007C46
:105A2C000008000800000000007C004000400078E6
:105A3C00000400040044003800000000003800445A
:105A4C00004000780044004400440038000000008E
:105A5C00007C000400080010001000200020002032
:105A6C0000000000003800440044003800440044AA
:105A7C00004400380000000000380044004400449A
:105A8C00003C00040044003800000000000000004E
:105A9C0000100000000000000000001000000000DA
:105AAC0000000000000000100000000000000010CA
:105ABC000010001000000000000C0030004000300E
:105ACC00000C000000000000000000000000007C42
